:020000000828CE
:0200080093283B
:10001000831603170E3088008901810100308700A4
:10002000831603178901880183160313950196012E
:100030009501960181019D018E01813099009A01FF
:10004000003098000F308500FF30860018308700A0
:1000500022308C008830920000309F00C030940025
:10006000603091008312031345309F0000308B00F5
:100070008C01970100308500860118308700003020
:1000800098009D01940190019D018901003091002B
:100090000030920038309400A4014E2845309F0073
:1000A0005B208D2049309F005B208D204D309F00CC
:1000B0005B208D204E28A40A9F149F185D281E08DF
:1000C000A3002408013A031976282408023A0319E8
:1000D00072282408033A03196D282310A31023154E
:1000E000A4017A282310A31423117A282314A3101F
:1000F00023117A2893018316111483124030930040
:100100008316141881288312230893008316141869
:1001100087288316111583120800FF30A500A50B50
:100120008F2800000800A1000308A0009728831270
:0C0130008C100C15200883002108090029
:04400E00F120FF3F5F
:00000001FF
