:020000000828CE
:020008008E2840
:1000100083160317023088008901810100308700B0
:10002000831603178901880183160313950196012E
:100030009501960181019D018E01813099009A01FF
:100040000030980002308500FF30860018308700AD
:1000500022308C008830920000309F00C030940025
:10006000603091008312031345309F0000308B00F5
:100070008C01970100308500860118308700003020
:1000800098009D01940190019D018901003091002B
:100090000030920038309400A4014E2845309F0073
:1000A000592049309F0059204E284D309F0059203B
:1000B0004E28A40A9F149F185B281E08A30024083A
:1000C000013A031976282408023A031971282408F2
:1000D000033A03196B282310A3102315A311A401BD
:1000E0007B282310A3142311A3117B282314A3100E
:1000F0002311A3117B28930183161114831240301E
:100100009300831614188228831223089300831601
:10011000141888288316111583120800A1000308FB
:10012000A000922883128C100C152008830021084F
:020130000900C4
:04400E00F120FF3F5F
:00000001FF
