:020000000828CE
:02000800792855
:1000100083160317023088008901810100308700B0
:10002000831603178901880183160313950196012E
:100030009501960181019D018E01813099009A01FF
:100040000030980002308500FF30860018308700AD
:1000500022308C008830920000309F00C030940025
:10006000603091008312031345309F0000308B00F5
:100070008C01970100308500860118308700003020
:1000800098009D01940190019D018901003091002B
:1000900000309200383094000030A300A401A50184
:1000A000A6010430A9004C30920056289F1458280D
:1000B0009F1858281E08B00093015E28831611145B
:1000C000831240309300831614186428831230087A
:1000D0009300831614186A2883161115111F7228AD
:1000E0008312752883120714752883120618752841
:1000F0005628A1000308A0007D2883128C100C153F
:0801000020088300210809001A
:04400E00F120FF3F5F
:00000001FF
