:020000000828CE
:0200080074285A
:1000100083160317023088008901810100308700B0
:10002000831603178901880183160313950196012E
:100030009501960181019D018E01813099009A01FF
:100040000030980002308500FF30860018308700AD
:1000500022308C008830920080309F00C0309400A5
:10006000603091008312031345309F0000308B00F5
:100070008C01970100308500860118308700003020
:1000800098009D01940190019D018901003091002B
:1000900000309200383094000030A300A401A50184
:1000A000A6010430A9004C30920056289301061C8A
:1000B00056288316111483124030930083161418A7
:1000C0005F288312883093008316141865288316DE
:1000D0001115111F6D2883127028831207147028C0
:1000E0008312061870285628A1000308A0008C1E51
:1000F0007A287F28A30B9C292618862991290C1180
:100100001A08A7002708243A031991282708233A38
:10011000031996282708213A0319992828189E2898
:100120009C29243099002814A8149C292810A8156B
:100130009C29270899002810A8149C292708053A0B
:100140000319F3282708063A0319FA282708073A5B
:10015000031901292708083A031908292708093A29
:1001600003190F2927080A3A0319162927080B3AF9
:1001700003191D2927080C3A0319242927080D3AC9
:1001800003192B2927080E3A0319322927080F3A99
:10019000031939292708103A031940292708113A69
:1001A000031947292708123A03194E292708133A39
:1001B000031955292708143A03195C292708153A09
:1001C000031963292708163A03196A292708173AD9
:1001D000031971292708183A031978292708193AA9
:1001E00003197F299C293230A400C330A5002618AA
:1001F000862991293C30A400C230A5002618862902
:1002000091294630A400C130A500261886299129DD
:100210005030A400C030A5002618862991295A30F4
:10022000A400BF30A5002618862991296430A400B7
:10023000BE30A5002618862991296E30A400BD3055
:10024000A5002618862991297830A400BC30A50085
:100250002618862991298230A400BB30A5002618D3
:10026000862991298C30A400BA30A5002618862949
:1002700091299630A400B930A50026188629912925
:10028000A030A400B830A500261886299129AA30EC
:10029000A400B730A500261886299129B430A400FF
:1002A000B630A500261886299129BE30A400B530A5
:1002B000A500261886299129C830A400B430A500CD
:1002C000261886299129D230A400B330A50026181B
:1002D00086299129DC30A400B230A5002618862991
:1002E0009129E630A400B130A5002618862991296D
:1002F000F030A400B030A500261886299129FA30E4
:10030000A400AF30A5002618862991292408831659
:10031000920083120530A300861426104C30920000
:100320009C2925088316920083121930A300861099
:100330002614253092009C2983128C100C1520085D
:0603400083002108090002
:04400E00F120FF3F5F
:00000001FF
