:020000000828CE
:020008006F285F
:1000100083160317003088008901810100308700B2
:10002000831603178901880183160313950196012E
:100030009501960181019D018E01023085000030FD
:1000400086001830870002308C008C1188309200B6
:1000500000309F0000309400003091004030930049
:1000600083120313C0308B008C0197010030850090
:100070008601183087009D01940190019D0189013E
:100080000030910000309200363094000030A30020
:10009000A401A501A601A8010130A7004C309200DF
:1000A00051288B018C1D52281308A80003138316B6
:1000B0001418582883120313141B5C2814168C116F
:1000C000C0308B0028082818A900A818B0002819EB
:1000D000B1006830B400B40B6B2800005128A100B7
:1000E0000308A0008B018C187B288C1978287A28AB
:1000F0008C1198299829A30B98292708013A0319EC
:1001000086282708023A03198D2894282908B20066
:10011000A6182614A61C26109B283008B200261903
:100120002614261D26109B283108B200A619261475
:10013000A61D26109B28F030B205B20E3208003AF8
:100140000319DF283208013A0319E6283208023A77
:100150000319ED283208033A0319F4283208043A47
:100160000319FB283208053A031902293208063A16
:10017000031909293208073A031910293208083AE5
:10018000031917293208093A03191E2932080A3AB5
:100190000319252932080B3A03192C2932080C3A85
:1001A0000319332932080D3A03193A2932080E3A55
:1001B0000319412932080F3A031948299829323086
:1001C000A4004130A50026184F2971293C30A40015
:1001D0004130A50026184F2971294630A40041302E
:1001E000A50026184F2971295030A4004130A500E0
:1001F00026184F2971295A30A4004130A50026182D
:100200004F2971296430A4004130A50026184F29D8
:1002100071296E30A4004130A50026184F2971299C
:100220007830A4004130A50026184F29712982306A
:10023000A4004130A50026184F2971298C30A40054
:100240004130A50026184F2971299630A40041306D
:10025000A50026184F297129A030A4004130A5001F
:1002600026184F297129AA30A4004130A50026186C
:100270004F297129B430A4004130A50026184F2918
:100280007129BE30A4004130A50026184F297129DC
:10029000C830A4004130A50026184F297129240830
:1002A0008316920083120130A3002708013A031934
:1002B00086142708013A0319A6102708023A0319E1
:1002C00086152708023A031926112708033A03194D
:1002D00086162708033A0319A61191014C309200A3
:1002E0009829A5088316920083120530A3002708D9
:1002F000013A031986102708013A0319A6142708A2
:10030000023A031986112708023A0319261527080D
:10031000033A031986122708033A0319A61527087A
:10032000033A0319A701A70A9101253092009829E1
:1003300083128C10C0308B00200883002108090034
:04400E00F120FF3F5F
:00000001FF
