:020000000828CE
:0200080073285B
:1000100083160317023088008901810100308700B0
:10002000831603178901880183160313950196012E
:100030009501960181019D018E01813099009A01FF
:1000400000309800023085000030860018308700AC
:1000500002308C008C118830920080309F0000307C
:10006000940000309100403093008312031300305D
:100070009F00C0308B008C01970100308500860105
:1000800018308700003098009D01940190019D0177
:100090008901003091000030920036309400003029
:1000A000A300A401A501A601A8010130A7004C30BE
:1000B00092005A288B018C1D5B281308A80003139B
:1000C00083161418612883120313141B6528141651
:1000D0008C11C0308B0028082818A900A818B0007F
:1000E0002819B1005A28A1000308A0008B018C1820
:1000F0007C288C198C117E29A30B7E292708013AB4
:10010000031987282708023A03198E2895282908F9
:10011000B200A6182614A61C2610A1283008B2008A
:1001200026192614261D2610A1283108B200A6196A
:100130002614A61D2610A128A30B7E2926183729D0
:100140005829B21BAA28321BBC28B21AC428321A5A
:10015000CE28C728321BB128B21AB628321A06296F
:10016000FF28B21AB928321A22291B29321A142957
:100170000D29321A30292929B21AC128321AEA283F
:10018000E328321AF828F128321ADC28D528323030
:10019000A400C330A5002618372958293C30A400F4
:1001A000C230A5002618372958294630A400C1308E
:1001B000A5002618372958295030A400C030A500C2
:1001C0002618372958295A30A400BF30A500261810
:1001D000372958296430A400BE30A50026183729D5
:1001E00058296E30A400BD30A5002618372958299B
:1001F0007830A400BC30A500261837295829823051
:10020000A400BB30A5002618372958298C30A4003B
:10021000BA30A5002618372958299630A400B930DD
:10022000A500261837295829A030A400B830A50009
:10023000261837295829AA30A400B730A500261857
:1002400037295829B430A400B630A500261837291C
:100250005829BE30A400B530A500261837295829E2
:10026000C830A400B430A50026183729582924081E
:100270008316920083120130A3002708013A031964
:1002800086142708013A0319A6102708023A031911
:1002900006152708023A031926112708033A0319FD
:1002A00086152708033A0319A6114C3092007E29BF
:1002B000A5088316920083120530A3002708013A8F
:1002C000031986102708013A0319A6142708023AD1
:1002D000031906112708023A031926152708033ABD
:1002E000031986112708033A0319A6152708033AAC
:1002F0000319A701A70A253092007E2983128C10CA
:0E0300009101C0308B00200883002108090005
:04400E00F120FF3F5F
:00000001FF
