:020000000828CE
:02000800592875
:1000100083160317023088008901810100308700B0
:10002000831603178901880183160313950196012E
:100030009501960181019D018E01813099009A01FF
:1000400000309800023085000030860018308700AC
:100050000E308C008830920080309F00C0309400B9
:1000600000309100403093008312031345309F000D
:10007000C0308B008C01970100308500860118305C
:100080008700003098009D01940190019D01890135
:100090000030910000309200363094000030A30010
:1000A000A401A501A601A80106309200572800006E
:1000B0005728A1000308A0008B018C1D602865282B
:1000C000A30B24292618042914291308A800930136
:1000D000031383161410831203136E28A81B7728AA
:1000E000281B8928A81A9128281A9B289428281B9D
:1000F0007E28A81A8328281AD328CC28A81A86284C
:10010000281AEF28E828281AE128DA28281AFD28D2
:10011000F628A81A8E28281AB728B028281AC52821
:10012000BE28281AA928A2283230A400C330A5006E
:100130002618042914293C30A400C230A500261832
:10014000042914294630A400C130A500261804292A
:1001500014295030A400C030A50026180429142901
:100160005A30A400BF30A500261804291429643091
:10017000A400BE30A5002618042914296E30A4005E
:10018000BD30A5002618042914297830A400BC30FD
:10019000A5002618042914298230A400BB30A5002C
:1001A0002618042914298C30A400BA30A50026187A
:1001B000042914299630A400B930A5002618042972
:1001C0001429A030A400B830A50026180429142949
:1001D000AA30A400B730A500261804291429B43089
:1001E000A400B630A500261804291429BE30A400A6
:1001F000B530A500261804291429C830A400B4304D
:10020000A5002618042914292408831692008312B5
:100210000130A30028188614A81806152819861579
:1002200026104C3092002429250883169200831250
:100230000530A30028188610A81806112819861161
:10024000261425309200242983128C100C158C154D
:100250008C119101C0308B00200883002108090017
:04400E00F120FF3F5F
:00000001FF
