:020000000828CE
:0200080070285E
:1000100083160317023088008901810100308700B0
:10002000831603178901880183160313950196012E
:100030009501960181019D018E01813099009A01FF
:1000400000309800023085000030860018308700AC
:1000500002308C008830920080309F000030940085
:1000600000309100403093008312031300309F0052
:10007000C0308B008C01970100308500860118305C
:100080008700003098009D01940190019D01890135
:100090000030910000309200363094000030A30010
:1000A000A401A501A601A8010630920057288B01E2
:1000B0008C1D58281308A8000313831614185E28F3
:1000C00083120313141B622814168C11C0308B008A
:1000D00028082818A900A818B0002819B100572826
:1000E000A1000308A0008C195229A30B5229B20ABF
:1000F0003208013A031981283208023A0319842888
:1001000087282908B3008F283008B3008F283108CA
:10011000B3008F28A30B5229261825293B29B31B8E
:100120009828331BAA28B31AB228331ABC28B5283A
:10013000331B9F28B31AA428331AF428ED28B31AC6
:10014000A728331A10290929331A0229FB28331A40
:100150001E291729B31AAF28331AD828D128331AE1
:10016000E628DF28331ACA28C3283230A400C33057
:10017000A500261825293B293C30A400C230A50043
:10018000261825293B294630A400C130A500261891
:1001900025293B295030A400C030A5002618252968
:1001A0003B295A30A400BF30A500261825293B2939
:1001B0006430A400BE30A500261825293B296E30E6
:1001C000A400BD30A500261825293B297830A400BD
:1001D000BC30A500261825293B298230A400BB305D
:1001E000A500261825293B298C30A400BA30A5008B
:1001F000261825293B299630A400B930A5002618D9
:1002000025293B29A030A400B830A50026182529AF
:100210003B29AA30A400B730A500261825293B2980
:10022000B430A400B630A500261825293B29BE30DD
:10023000A400B530A500261825293B29C830A40004
:10024000B430A500261825293B29240883169200DE
:1002500083120130A3003208013A031986143208D0
:10026000023A031906153208033A031986152610B7
:100270004C3092005229A508831692008312053053
:10028000A3003208013A031986103208023A031912
:1002900006113208033A0319B201861126142530DB
:1002A0009200522983128C109101200883002108AA
:0202B000090043
:04400E00F120FF3F5F
:00000001FF
