:020000000828CE
:02000800682866
:1000100083160317023088008901810100308700B0
:10002000831603178901880183160313950196012E
:100030009501960181019D018E01813099009A01FF
:1000400000309800023085000030860018308700AC
:1000500008308C008830920080309F00C0309400BF
:1000600000309100403093008312031345309F000D
:1000700000308B008C01970100308500860118301C
:100080008700003098009D01940190019D01890135
:100090000030910000309200363094000030A30010
:1000A000A401A501A6010430A900B0014C309200C2
:1000B00059280000300886008C1D5C281308B00009
:1000C0009301031383161410831203138C11592800
:1000D000A1000308A00000008C1D80288C1183164D
:1000E0000313141A9401941B940114197B2883128E
:1000F000031313088628831203131308B0008628FD
:100100008D1D86288D1194129416862883128C10CA
:0A0110000C152008830021080900E7
:04400E00F120FF3F5F
:00000001FF
