:020000000828CE
:0200080073285B
:1000100083160317023088008901810100308700B0
:10002000831603178901880183160313950196012E
:100030009501960181019D018E01813099009A01FF
:1000400000309800023085000030860018308700AC
:1000500002308C008C118830920080309F0000307C
:10006000940000309100403093008312031300305D
:100070009F00C0308B008C01970100308500860105
:1000800018308700003098009D01940190019D0177
:100090008901003091000030920036309400003029
:1000A000A300A401A501A601A8010130A7004C30BE
:1000B00092005A288B018C1D5B281308A80003139B
:1000C00083161418612883120313141B6528141651
:1000D0008C11C0308B0028082818A900A818B0007F
:1000E0002819B1005A28A1000308A0008C187E2806
:1000F0008C1991287B280430860644290230860614
:10010000A30B442988282708023A03198B288E2834
:100110002908B2009A283008B2009A283108B200A3
:100120009A280130860644294429A30B442926181D
:1001300030293A29B21BA328321BB528B21ABD2890
:10014000321AC728C028321BAA28B21AAF28321A7E
:10015000FF28F828B21AB228321A1B291429321A99
:100160000D290629321A29292229B21ABA28321A47
:10017000E328DC28321AF128EA28321AD528CE28BA
:100180003230A400C330A500261830293A293C306B
:10019000A400C230A500261830293A294630A40010
:1001A000C130A500261830293A295030A400C030AB
:1001B000A500261830293A295A30A400BF30A500DE
:1001C000261830293A296430A400BE30A50026182C
:1001D00030293A296E30A400BD30A50026183029F8
:1001E0003A297830A400BC30A500261830293A29D5
:1001F0008230A400BB30A500261830293A298C3063
:10020000A400BA30A500261830293A299630A40057
:10021000B930A500261830293A29A030A400B830FA
:10022000A500261830293A29AA30A400B730A50025
:10023000261830293A29B430A400B630A500261873
:1002400030293A29BE30A400B530A500261830293F
:100250003A29C830A400B430A500261830293A291C
:1002600024088316920083120130A30026104C301C
:1002700092004429A5088316920083120530A3003A
:10028000261425309200442983128C1091010830E5
:0A02900086062008830021080900FB
:04400E00F120FF3F5F
:00000001FF
